{
  "_format": "hh-sol-artifact-1",
  "contractName": "Campaign",
  "sourceName": "contracts/Campaign.sol",
  "abi": [
    {
      "inputs": [
        {
          "internalType": "uint256",
          "name": "_startBlock",
          "type": "uint256"
        },
        {
          "internalType": "uint256",
          "name": "_endBlock",
          "type": "uint256"
        },
        {
          "internalType": "address",
          "name": "_tokenAddress",
          "type": "address"
        },
        {
          "internalType": "address",
          "name": "_lendingPoolAddress",
          "type": "address"
        },
        {
          "internalType": "address",
          "name": "_beneficiaryWallet",
          "type": "address"
        },
        {
          "internalType": "string",
          "name": "_metadataUrl",
          "type": "string"
        }
      ],
      "stateMutability": "nonpayable",
      "type": "constructor"
    },
    {
      "inputs": [],
      "name": "Campaign__DonationTransferFailed",
      "type": "error"
    },
    {
      "inputs": [
        {
          "internalType": "uint256",
          "name": "_currentBlock",
          "type": "uint256"
        },
        {
          "internalType": "uint256",
          "name": "_startBlock",
          "type": "uint256"
        },
        {
          "internalType": "uint256",
          "name": "_endBlock",
          "type": "uint256"
        }
      ],
      "name": "Campaign__NotInProgress",
      "type": "error"
    },
    {
      "inputs": [],
      "name": "Campaing__Endend",
      "type": "error"
    },
    {
      "inputs": [
        {
          "internalType": "uint256",
          "name": "_currentBlock",
          "type": "uint256"
        },
        {
          "internalType": "uint256",
          "name": "_endBlock",
          "type": "uint256"
        }
      ],
      "name": "Campaing__NotEnded",
      "type": "error"
    },
    {
      "inputs": [
        {
          "internalType": "address",
          "name": "_who",
          "type": "address"
        },
        {
          "internalType": "uint256",
          "name": "_requested",
          "type": "uint256"
        },
        {
          "internalType": "uint256",
          "name": "_availableFounds",
          "type": "uint256"
        }
      ],
      "name": "Campaing__WrongWithdrawRequested",
      "type": "error"
    },
    {
      "anonymous": false,
      "inputs": [
        {
          "indexed": false,
          "internalType": "uint256",
          "name": "collectedFounds",
          "type": "uint256"
        }
      ],
      "name": "CampaignEnded",
      "type": "event"
    },
    {
      "anonymous": false,
      "inputs": [
        {
          "indexed": true,
          "internalType": "address",
          "name": "who",
          "type": "address"
        },
        {
          "indexed": false,
          "internalType": "uint256",
          "name": "amount",
          "type": "uint256"
        }
      ],
      "name": "Donated",
      "type": "event"
    },
    {
      "anonymous": false,
      "inputs": [
        {
          "indexed": true,
          "internalType": "address",
          "name": "who",
          "type": "address"
        },
        {
          "indexed": false,
          "internalType": "uint256",
          "name": "amount",
          "type": "uint256"
        }
      ],
      "name": "Withdrawn",
      "type": "event"
    },
    {
      "inputs": [
        {
          "internalType": "uint256",
          "name": "_amount",
          "type": "uint256"
        }
      ],
      "name": "donate",
      "outputs": [],
      "stateMutability": "nonpayable",
      "type": "function"
    },
    {
      "inputs": [],
      "name": "endCampaign",
      "outputs": [],
      "stateMutability": "nonpayable",
      "type": "function"
    },
    {
      "inputs": [
        {
          "internalType": "uint256",
          "name": "_amount",
          "type": "uint256"
        }
      ],
      "name": "foundCharityWalletAndGetBackRest",
      "outputs": [],
      "stateMutability": "nonpayable",
      "type": "function"
    },
    {
      "inputs": [
        {
          "internalType": "address",
          "name": "_donor",
          "type": "address"
        }
      ],
      "name": "getDonorDonation",
      "outputs": [
        {
          "internalType": "uint256",
          "name": "",
          "type": "uint256"
        }
      ],
      "stateMutability": "view",
      "type": "function"
    },
    {
      "inputs": [],
      "name": "getInfo",
      "outputs": [
        {
          "components": [
            {
              "internalType": "address",
              "name": "beneficiaryWallet",
              "type": "address"
            },
            {
              "internalType": "uint256",
              "name": "startBlock",
              "type": "uint256"
            },
            {
              "internalType": "uint256",
              "name": "endBlock",
              "type": "uint256"
            },
            {
              "internalType": "uint256",
              "name": "donationPool",
              "type": "uint256"
            },
            {
              "internalType": "uint256",
              "name": "collectedReward",
              "type": "uint256"
            },
            {
              "internalType": "uint256",
              "name": "additionalPassedFounds",
              "type": "uint256"
            },
            {
              "internalType": "string",
              "name": "metadataUrl",
              "type": "string"
            }
          ],
          "internalType": "struct Campaign.Info",
          "name": "",
          "type": "tuple"
        }
      ],
      "stateMutability": "view",
      "type": "function"
    },
    {
      "inputs": [],
      "name": "isEnded",
      "outputs": [
        {
          "internalType": "bool",
          "name": "",
          "type": "bool"
        }
      ],
      "stateMutability": "view",
      "type": "function"
    },
    {
      "inputs": [
        {
          "internalType": "uint256",
          "name": "_amount",
          "type": "uint256"
        }
      ],
      "name": "withdraw",
      "outputs": [],
      "stateMutability": "nonpayable",
      "type": "function"
    }
  ],
  "bytecode": "0x60806040523480156200001157600080fd5b506040516200104d3803806200104d833981016040819052620000349162000284565b6200007e6040518060e0016040528060006001600160a01b031681526020016000815260200160008152602001600081526020016000815260200160008152602001606081525090565b6001600160a01b03831680825260208083018990526040830188905260c08301849052600280546001600160a01b0319169092178255600389905560048890556060830151600555608083015160065560a08301516007558351839291620000ec91600891870190620001ab565b5050600080546001600160a01b03199081166001600160a01b038981169182179093556001805490921692881692831790915560405163095ea7b360e01b815260048101929092526000196024830152915063095ea7b390604401602060405180830381600087803b1580156200016257600080fd5b505af115801562000177573d6000803e3d6000fd5b505050506040513d601f19601f820116820180604052508101906200019d9190620003ad565b505050505050505062000415565b828054620001b990620003d8565b90600052602060002090601f016020900481019282620001dd576000855562000228565b82601f10620001f857805160ff191683800117855562000228565b8280016001018555821562000228579182015b82811115620002285782518255916020019190600101906200020b565b50620002369291506200023a565b5090565b5b808211156200023657600081556001016200023b565b80516001600160a01b03811681146200026957600080fd5b919050565b634e487b7160e01b600052604160045260246000fd5b60008060008060008060c087890312156200029e57600080fd5b865195506020808801519550620002b86040890162000251565b9450620002c86060890162000251565b9350620002d86080890162000251565b60a08901519093506001600160401b0380821115620002f657600080fd5b818a0191508a601f8301126200030b57600080fd5b8151818111156200032057620003206200026e565b604051601f8201601f19908116603f011681019083821181831017156200034b576200034b6200026e565b816040528281528d868487010111156200036457600080fd5b600093505b8284101562000388578484018601518185018701529285019262000369565b828411156200039a5760008684830101525b8096505050505050509295509295509295565b600060208284031215620003c057600080fd5b81518015158114620003d157600080fd5b9392505050565b600181811c90821680620003ed57607f821691505b602082108114156200040f57634e487b7160e01b600052602260045260246000fd5b50919050565b610c2880620004256000396000f3fe608060405234801561001057600080fd5b506004361061006d5760003560e01c806301fa66861461007257806315c6cba8146100875780632e1a7d4d146100c35780635a9b0b89146100d657806371aac7f9146100eb578063a4fd6f56146100f3578063f14faf6f14610110575b600080fd5b6100856100803660046109ec565b610123565b005b6100b0610095366004610a05565b6001600160a01b031660009081526009602052604090205490565b6040519081526020015b60405180910390f35b6100856100d13660046109ec565b610330565b6100de610511565b6040516100ba9190610a35565b61008561063a565b600154600160a01b900460ff1660405190151581526020016100ba565b61008561011e3660046109ec565b610808565b3360009081526009602052604090205481111561017057336000818152600960205260409081902054905163253987a560e21b815261016792918491600401610ada565b60405180910390fd5b600154600160a01b900460ff166101a75760048054604051631ea3833560e01b815243928101929092526024820152604401610167565b336000908152600960205260408120546101c2908390610b11565b336000908152600960205260408120546005805493945090929091906101e9908490610b11565b909155505033600090815260096020526040812081905560078054849290610212908490610b28565b909155505060005460025460405163a9059cbb60e01b81526001600160a01b039283169263a9059cbb9261024d929116908690600401610b40565b602060405180830381600087803b15801561026757600080fd5b505af115801561027b573d6000803e3d6000fd5b505050506040513d601f19601f8201168201806040525081019061029f9190610b59565b50801561032c5760005460405163a9059cbb60e01b81526001600160a01b039091169063a9059cbb906102d89033908590600401610b40565b602060405180830381600087803b1580156102f257600080fd5b505af1158015610306573d6000803e3d6000fd5b505050506040513d601f19601f8201168201806040525081019061032a9190610b59565b505b5050565b3360009081526009602052604090205481111561037457336000818152600960205260409081902054905163253987a560e21b815261016792918491600401610ada565b80600260030160008282546103899190610b11565b909155505033600090815260096020526040812080548392906103ad908490610b11565b9091555050600154600160a01b900460ff1661045357600154600054604051631a4ca37b60e21b81526001600160a01b03928316926369328dec926103fb9291169085903390600401610b7b565b602060405180830381600087803b15801561041557600080fd5b505af1158015610429573d6000803e3d6000fd5b505050506040513d601f19601f8201168201806040525081019061044d9190610b9e565b506104d9565b60005460405163a9059cbb60e01b81526001600160a01b039091169063a9059cbb906104859033908590600401610b40565b602060405180830381600087803b15801561049f57600080fd5b505af11580156104b3573d6000803e3d6000fd5b505050506040513d601f19601f820116820180604052508101906104d79190610b59565b505b60405181815233907f7084f5476618d8e60b11ef0d7d3f06914655adb8793e28ff7f018d4c76d505d59060200160405180910390a250565b61055a6040518060e0016040528060006001600160a01b031681526020016000815260200160008152602001600081526020016000815260200160008152602001606081525090565b6040805160e081018252600280546001600160a01b031682526003546020830152600454928201929092526005546060820152600654608082015260075460a08201526008805491929160c0840191906105b390610bb7565b80601f01602080910402602001604051908101604052809291908181526020018280546105df90610bb7565b801561062c5780601f106106015761010080835404028352916020019161062c565b820191906000526020600020905b81548152906001019060200180831161060f57829003601f168201915b505050505081525050905090565b600154600160a01b900460ff161561066557604051635677443160e11b815260040160405180910390fd5b60045443116106945760048054604051631ea3833560e01b815243928101929092526024820152604401610167565b6001805460ff60a01b198116600160a01b1790915560008054604051631a4ca37b60e21b815291926001600160a01b03908116926369328dec926106e2921690600019903090600401610b7b565b602060405180830381600087803b1580156106fc57600080fd5b505af1158015610710573d6000803e3d6000fd5b505050506040513d601f19601f820116820180604052508101906107349190610b9e565b6005549091506107449082610b11565b600681905560005460025460405163a9059cbb60e01b81526001600160a01b039283169363a9059cbb9361077c931691600401610b40565b602060405180830381600087803b15801561079657600080fd5b505af11580156107aa573d6000803e3d6000fd5b505050506040513d601f19601f820116820180604052508101906107ce9190610b59565b506006546040519081527f4d09689e5ab2d74dc1f9a1e821d4dcb2bb48908bd8a74872127b995b7d1201549060200160405180910390a150565b600354431080610819575060045443115b15610852576003546004805460405163583f65a560e11b8152610167934393909291019283526020830191909152604082015260600190565b80600260030160008282546108679190610b28565b9091555050336000908152600960205260408120805483929061088b908490610b28565b9091555050600080546040516323b872dd60e01b8152336004820152306024820152604481018490526001600160a01b03909116906323b872dd90606401602060405180830381600087803b1580156108e357600080fd5b505af11580156108f7573d6000803e3d6000fd5b505050506040513d601f19601f8201168201806040525081019061091b9190610b59565b90508061093b5760405163628a61ad60e01b815260040160405180910390fd5b6001546000805460405163e8eda9df60e01b81526001600160a01b0391821660048201526024810186905230604482015260648101929092529091169063e8eda9df90608401600060405180830381600087803b15801561099b57600080fd5b505af11580156109af573d6000803e3d6000fd5b50506040518481523392507f2a01595cddf097c90216094025db714da3f4e5bd8877b56ba86a24ecead8e543915060200160405180910390a25050565b6000602082840312156109fe57600080fd5b5035919050565b600060208284031215610a1757600080fd5b81356001600160a01b0381168114610a2e57600080fd5b9392505050565b6000602080835260018060a01b03845116818401528084015160408401526040840151606084015260608401516080840152608084015160a084015260a084015160c084015260c084015160e08085015280518061010086015260005b81811015610aaf5782810184015186820161012001528301610a92565b81811115610ac257600061012083880101525b50601f01601f19169390930161012001949350505050565b6001600160a01b039390931683526020830191909152604082015260600190565b634e487b7160e01b600052601160045260246000fd5b600082821015610b2357610b23610afb565b500390565b60008219821115610b3b57610b3b610afb565b500190565b6001600160a01b03929092168252602082015260400190565b600060208284031215610b6b57600080fd5b81518015158114610a2e57600080fd5b6001600160a01b0393841681526020810192909252909116604082015260600190565b600060208284031215610bb057600080fd5b5051919050565b600181811c90821680610bcb57607f821691505b60208210811415610bec57634e487b7160e01b600052602260045260246000fd5b5091905056fea264697066735822122023e02673c1cba7faa910a78dc47893aa0e58004ba00bd29cbd41a096213e159b64736f6c63430008080033",
  "linkReferences": {},
  "deployedLinkReferences": {}
}