{
  "_format": "hh-sol-artifact-1",
  "contractName": "ChainOfGoodFactory",
  "sourceName": "contracts/ChainOfGoodFactory.sol",
  "abi": [
    {
      "inputs": [
        {
          "internalType": "address",
          "name": "_lendingPoolAddressProvider",
          "type": "address"
        }
      ],
      "stateMutability": "nonpayable",
      "type": "constructor"
    },
    {
      "anonymous": false,
      "inputs": [
        {
          "indexed": true,
          "internalType": "address",
          "name": "campaignAddress",
          "type": "address"
        },
        {
          "indexed": false,
          "internalType": "uint256",
          "name": "startBlock",
          "type": "uint256"
        },
        {
          "indexed": false,
          "internalType": "uint256",
          "name": "endBlock",
          "type": "uint256"
        },
        {
          "indexed": false,
          "internalType": "address",
          "name": "tokenAddress",
          "type": "address"
        },
        {
          "indexed": true,
          "internalType": "address",
          "name": "beneficiaryWallet",
          "type": "address"
        }
      ],
      "name": "CampaignCreated",
      "type": "event"
    },
    {
      "anonymous": false,
      "inputs": [
        {
          "indexed": true,
          "internalType": "address",
          "name": "previousOwner",
          "type": "address"
        },
        {
          "indexed": true,
          "internalType": "address",
          "name": "newOwner",
          "type": "address"
        }
      ],
      "name": "OwnershipTransferred",
      "type": "event"
    },
    {
      "inputs": [
        {
          "internalType": "uint256",
          "name": "_startBlock",
          "type": "uint256"
        },
        {
          "internalType": "uint256",
          "name": "_endBlock",
          "type": "uint256"
        },
        {
          "internalType": "address",
          "name": "_token",
          "type": "address"
        },
        {
          "internalType": "address",
          "name": "_beneficiaryWallet",
          "type": "address"
        },
        {
          "internalType": "string",
          "name": "_metadataUrl",
          "type": "string"
        }
      ],
      "name": "createCampaign",
      "outputs": [],
      "stateMutability": "nonpayable",
      "type": "function"
    },
    {
      "inputs": [],
      "name": "getCampaigns",
      "outputs": [
        {
          "internalType": "address[]",
          "name": "",
          "type": "address[]"
        }
      ],
      "stateMutability": "view",
      "type": "function"
    },
    {
      "inputs": [],
      "name": "owner",
      "outputs": [
        {
          "internalType": "address",
          "name": "",
          "type": "address"
        }
      ],
      "stateMutability": "view",
      "type": "function"
    },
    {
      "inputs": [],
      "name": "renounceOwnership",
      "outputs": [],
      "stateMutability": "nonpayable",
      "type": "function"
    },
    {
      "inputs": [
        {
          "internalType": "uint256",
          "name": "",
          "type": "uint256"
        }
      ],
      "name": "s_campaigns",
      "outputs": [
        {
          "internalType": "address",
          "name": "",
          "type": "address"
        }
      ],
      "stateMutability": "view",
      "type": "function"
    },
    {
      "inputs": [
        {
          "internalType": "address",
          "name": "newOwner",
          "type": "address"
        }
      ],
      "name": "transferOwnership",
      "outputs": [],
      "stateMutability": "nonpayable",
      "type": "function"
    }
  ],
  "bytecode": "0x60a060405234801561001057600080fd5b5060405161185d38038061185d83398101604081905261002f9161009d565b6100383361004d565b60601b6001600160601b0319166080526100cd565b600080546001600160a01b038381166001600160a01b0319831681178455604051919092169283917f8be0079c531659141344cd1fd0a4f28419497f9722a3daafe3b4186f6b6457e09190a35050565b6000602082840312156100af57600080fd5b81516001600160a01b03811681146100c657600080fd5b9392505050565b60805160601c6117726100eb600039600061017801526117726000f3fe60806040523480156200001157600080fd5b50600436106200006a5760003560e01c8063715018a6146200006f5780638da5cb5b146200007b578063992f809114620000a5578063a6b0363314620000bc578063bdaa002114620000d5578063f2fde38b14620000ec575b600080fd5b6200007962000103565b005b6000546001600160a01b03165b6040516001600160a01b0390911681526020015b60405180910390f35b62000079620000b6366004620004b0565b62000147565b620000c6620002f5565b6040516200009c9190620005a8565b62000088620000e6366004620005f7565b62000359565b62000079620000fd36600462000611565b62000384565b6000546001600160a01b03163314620001395760405162461bcd60e51b8152600401620001309062000638565b60405180910390fd5b62000145600062000426565b565b6000546001600160a01b03163314620001745760405162461bcd60e51b8152600401620001309062000638565b60007f00000000000000000000000000000000000000000000000000000000000000006001600160a01b0316630261bf8b6040518163ffffffff1660e01b815260040160206040518083038186803b158015620001d057600080fd5b505afa158015620001e5573d6000803e3d6000fd5b505050506040513d601f19601f820116820180604052508101906200020b91906200066d565b90506000868686848787604051620002239062000476565b62000234969594939291906200068d565b604051809103906000f08015801562000251573d6000803e3d6000fd5b506001805480820182556000919091527fb10e2d527612073b26eecdfd717e6a320cf44b4afac2b0732d9fcbe2b7fa0cf60180546001600160a01b0319166001600160a01b03838116918217909255604080518b8152602081018b905289841691810191909152929350908616917f4d48dcdb314c09e94cc1852059c01dfa0235de10c533a8c848ca04f794513c8b9060600160405180910390a350505050505050565b606060018054806020026020016040519081016040528092919081815260200182805480156200034f57602002820191906000526020600020905b81546001600160a01b0316815260019091019060200180831162000330575b5050505050905090565b600181815481106200036a57600080fd5b6000918252602090912001546001600160a01b0316905081565b6000546001600160a01b03163314620003b15760405162461bcd60e51b8152600401620001309062000638565b6001600160a01b038116620004185760405162461bcd60e51b815260206004820152602660248201527f4f776e61626c653a206e6577206f776e657220697320746865207a65726f206160448201526564647265737360d01b606482015260840162000130565b620004238162000426565b50565b600080546001600160a01b038381166001600160a01b0319831681178455604051919092169283917f8be0079c531659141344cd1fd0a4f28419497f9722a3daafe3b4186f6b6457e09190a35050565b611025806200071883390190565b6001600160a01b03811681146200042357600080fd5b634e487b7160e01b600052604160045260246000fd5b600080600080600060a08688031215620004c957600080fd5b85359450602086013593506040860135620004e48162000484565b92506060860135620004f68162000484565b9150608086013567ffffffffffffffff808211156200051457600080fd5b818801915088601f8301126200052957600080fd5b8135818111156200053e576200053e6200049a565b604051601f8201601f19908116603f011681019083821181831017156200056957620005696200049a565b816040528281528b60208487010111156200058357600080fd5b8260208601602083013760006020848301015280955050505050509295509295909350565b6020808252825182820181905260009190848201906040850190845b81811015620005eb5783516001600160a01b031683529284019291840191600101620005c4565b50909695505050505050565b6000602082840312156200060a57600080fd5b5035919050565b6000602082840312156200062457600080fd5b8135620006318162000484565b9392505050565b6020808252818101527f4f776e61626c653a2063616c6c6572206973206e6f7420746865206f776e6572604082015260600190565b6000602082840312156200068057600080fd5b8151620006318162000484565b86815260006020878184015260018060a01b038088166040850152808716606085015280861660808501525060c060a084015283518060c085015260005b81811015620006e95785810183015185820160e001528201620006cb565b81811115620006fc57600060e083870101525b50601f01601f19169290920160e0019897505050505050505056fe60806040523480156200001157600080fd5b506040516200102538038062001025833981016040819052620000349162000284565b6200007e6040518060e0016040528060006001600160a01b031681526020016000815260200160008152602001600081526020016000815260200160008152602001606081525090565b6001600160a01b03831680825260208083018990526040830188905260c08301849052600280546001600160a01b0319169092178255600389905560048890556060830151600555608083015160065560a08301516007558351839291620000ec91600891870190620001ab565b5050600080546001600160a01b03199081166001600160a01b038981169182179093556001805490921692881692831790915560405163095ea7b360e01b815260048101929092526000196024830152915063095ea7b390604401602060405180830381600087803b1580156200016257600080fd5b505af115801562000177573d6000803e3d6000fd5b505050506040513d601f19601f820116820180604052508101906200019d9190620003ad565b505050505050505062000415565b828054620001b990620003d8565b90600052602060002090601f016020900481019282620001dd576000855562000228565b82601f10620001f857805160ff191683800117855562000228565b8280016001018555821562000228579182015b82811115620002285782518255916020019190600101906200020b565b50620002369291506200023a565b5090565b5b808211156200023657600081556001016200023b565b80516001600160a01b03811681146200026957600080fd5b919050565b634e487b7160e01b600052604160045260246000fd5b60008060008060008060c087890312156200029e57600080fd5b865195506020808801519550620002b86040890162000251565b9450620002c86060890162000251565b9350620002d86080890162000251565b60a08901519093506001600160401b0380821115620002f657600080fd5b818a0191508a601f8301126200030b57600080fd5b8151818111156200032057620003206200026e565b604051601f8201601f19908116603f011681019083821181831017156200034b576200034b6200026e565b816040528281528d868487010111156200036457600080fd5b600093505b8284101562000388578484018601518185018701529285019262000369565b828411156200039a5760008684830101525b8096505050505050509295509295509295565b600060208284031215620003c057600080fd5b81518015158114620003d157600080fd5b9392505050565b600181811c90821680620003ed57607f821691505b602082108114156200040f57634e487b7160e01b600052602260045260246000fd5b50919050565b610c0080620004256000396000f3fe608060405234801561001057600080fd5b50600436106100625760003560e01c806301fa66861461006757806315c6cba81461007c5780632e1a7d4d146100b85780635a9b0b89146100cb57806371aac7f9146100e0578063f14faf6f146100e8575b600080fd5b61007a6100753660046109c4565b6100fb565b005b6100a561008a3660046109dd565b6001600160a01b031660009081526009602052604090205490565b6040519081526020015b60405180910390f35b61007a6100c63660046109c4565b610308565b6100d36104e9565b6040516100af9190610a0d565b61007a610612565b61007a6100f63660046109c4565b6107e0565b3360009081526009602052604090205481111561014857336000818152600960205260409081902054905163253987a560e21b815261013f92918491600401610ab2565b60405180910390fd5b600154600160a01b900460ff1661017f5760048054604051631ea3833560e01b81524392810192909252602482015260440161013f565b3360009081526009602052604081205461019a908390610ae9565b336000908152600960205260408120546005805493945090929091906101c1908490610ae9565b9091555050336000908152600960205260408120819055600780548492906101ea908490610b00565b909155505060005460025460405163a9059cbb60e01b81526001600160a01b039283169263a9059cbb92610225929116908690600401610b18565b602060405180830381600087803b15801561023f57600080fd5b505af1158015610253573d6000803e3d6000fd5b505050506040513d601f19601f820116820180604052508101906102779190610b31565b5080156103045760005460405163a9059cbb60e01b81526001600160a01b039091169063a9059cbb906102b09033908590600401610b18565b602060405180830381600087803b1580156102ca57600080fd5b505af11580156102de573d6000803e3d6000fd5b505050506040513d601f19601f820116820180604052508101906103029190610b31565b505b5050565b3360009081526009602052604090205481111561034c57336000818152600960205260409081902054905163253987a560e21b815261013f92918491600401610ab2565b80600260030160008282546103619190610ae9565b90915550503360009081526009602052604081208054839290610385908490610ae9565b9091555050600154600160a01b900460ff1661042b57600154600054604051631a4ca37b60e21b81526001600160a01b03928316926369328dec926103d39291169085903390600401610b53565b602060405180830381600087803b1580156103ed57600080fd5b505af1158015610401573d6000803e3d6000fd5b505050506040513d601f19601f820116820180604052508101906104259190610b76565b506104b1565b60005460405163a9059cbb60e01b81526001600160a01b039091169063a9059cbb9061045d9033908590600401610b18565b602060405180830381600087803b15801561047757600080fd5b505af115801561048b573d6000803e3d6000fd5b505050506040513d601f19601f820116820180604052508101906104af9190610b31565b505b60405181815233907f7084f5476618d8e60b11ef0d7d3f06914655adb8793e28ff7f018d4c76d505d59060200160405180910390a250565b6105326040518060e0016040528060006001600160a01b031681526020016000815260200160008152602001600081526020016000815260200160008152602001606081525090565b6040805160e081018252600280546001600160a01b031682526003546020830152600454928201929092526005546060820152600654608082015260075460a08201526008805491929160c08401919061058b90610b8f565b80601f01602080910402602001604051908101604052809291908181526020018280546105b790610b8f565b80156106045780601f106105d957610100808354040283529160200191610604565b820191906000526020600020905b8154815290600101906020018083116105e757829003601f168201915b505050505081525050905090565b600154600160a01b900460ff161561063d57604051635677443160e11b815260040160405180910390fd5b600454431161066c5760048054604051631ea3833560e01b81524392810192909252602482015260440161013f565b6001805460ff60a01b198116600160a01b1790915560008054604051631a4ca37b60e21b815291926001600160a01b03908116926369328dec926106ba921690600019903090600401610b53565b602060405180830381600087803b1580156106d457600080fd5b505af11580156106e8573d6000803e3d6000fd5b505050506040513d601f19601f8201168201806040525081019061070c9190610b76565b60055490915061071c9082610ae9565b600681905560005460025460405163a9059cbb60e01b81526001600160a01b039283169363a9059cbb93610754931691600401610b18565b602060405180830381600087803b15801561076e57600080fd5b505af1158015610782573d6000803e3d6000fd5b505050506040513d601f19601f820116820180604052508101906107a69190610b31565b506006546040519081527f4d09689e5ab2d74dc1f9a1e821d4dcb2bb48908bd8a74872127b995b7d1201549060200160405180910390a150565b6003544310806107f1575060045443115b1561082a576003546004805460405163583f65a560e11b815261013f934393909291019283526020830191909152604082015260600190565b806002600301600082825461083f9190610b00565b90915550503360009081526009602052604081208054839290610863908490610b00565b9091555050600080546040516323b872dd60e01b8152336004820152306024820152604481018490526001600160a01b03909116906323b872dd90606401602060405180830381600087803b1580156108bb57600080fd5b505af11580156108cf573d6000803e3d6000fd5b505050506040513d601f19601f820116820180604052508101906108f39190610b31565b9050806109135760405163628a61ad60e01b815260040160405180910390fd5b6001546000805460405163e8eda9df60e01b81526001600160a01b0391821660048201526024810186905230604482015260648101929092529091169063e8eda9df90608401600060405180830381600087803b15801561097357600080fd5b505af1158015610987573d6000803e3d6000fd5b50506040518481523392507f2a01595cddf097c90216094025db714da3f4e5bd8877b56ba86a24ecead8e543915060200160405180910390a25050565b6000602082840312156109d657600080fd5b5035919050565b6000602082840312156109ef57600080fd5b81356001600160a01b0381168114610a0657600080fd5b9392505050565b6000602080835260018060a01b03845116818401528084015160408401526040840151606084015260608401516080840152608084015160a084015260a084015160c084015260c084015160e08085015280518061010086015260005b81811015610a875782810184015186820161012001528301610a6a565b81811115610a9a57600061012083880101525b50601f01601f19169390930161012001949350505050565b6001600160a01b039390931683526020830191909152604082015260600190565b634e487b7160e01b600052601160045260246000fd5b600082821015610afb57610afb610ad3565b500390565b60008219821115610b1357610b13610ad3565b500190565b6001600160a01b03929092168252602082015260400190565b600060208284031215610b4357600080fd5b81518015158114610a0657600080fd5b6001600160a01b0393841681526020810192909252909116604082015260600190565b600060208284031215610b8857600080fd5b5051919050565b600181811c90821680610ba357607f821691505b60208210811415610bc457634e487b7160e01b600052602260045260246000fd5b5091905056fea264697066735822122003fc85e470a444fabc71b57366c0aea25c1655fd3e3afdb7927922a7e612bdbe64736f6c63430008080033a2646970667358221220d5cc92d607c07ad20dbd45e19d2db0d81b7456849b62993d8639024d6025dd0364736f6c63430008080033",
  "linkReferences": {},
  "deployedLinkReferences": {}
}